{
  "_format": "hh-sol-artifact-1",
  "contractName": "TokenizedBallot",
  "sourceName": "contracts/TokenizedBallot.sol",
  "abi": [
    {
      "inputs": [
        {
          "internalType": "bytes32[]",
          "name": "proposalNames",
          "type": "bytes32[]"
        },
        {
          "internalType": "contract IMyVotingToken",
          "name": "_tokenContract",
          "type": "address"
        },
        {
          "internalType": "uint256",
          "name": "blocksQuantity",
          "type": "uint256"
        }
      ],
      "stateMutability": "nonpayable",
      "type": "constructor"
    },
    {
      "inputs": [],
      "name": "listProposal",
      "outputs": [
        {
          "internalType": "bytes32[]",
          "name": "",
          "type": "bytes32[]"
        }
      ],
      "stateMutability": "view",
      "type": "function"
    },
    {
      "inputs": [
        {
          "internalType": "uint256",
          "name": "",
          "type": "uint256"
        }
      ],
      "name": "proposals",
      "outputs": [
        {
          "internalType": "bytes32",
          "name": "name",
          "type": "bytes32"
        },
        {
          "internalType": "uint256",
          "name": "voteCount",
          "type": "uint256"
        }
      ],
      "stateMutability": "view",
      "type": "function"
    },
    {
      "inputs": [],
      "name": "targetBlockNumber",
      "outputs": [
        {
          "internalType": "uint256",
          "name": "",
          "type": "uint256"
        }
      ],
      "stateMutability": "view",
      "type": "function"
    },
    {
      "inputs": [],
      "name": "tokenContract",
      "outputs": [
        {
          "internalType": "contract IMyVotingToken",
          "name": "",
          "type": "address"
        }
      ],
      "stateMutability": "view",
      "type": "function"
    },
    {
      "inputs": [
        {
          "internalType": "uint256",
          "name": "proposal",
          "type": "uint256"
        },
        {
          "internalType": "uint256",
          "name": "amount",
          "type": "uint256"
        }
      ],
      "name": "vote",
      "outputs": [],
      "stateMutability": "nonpayable",
      "type": "function"
    },
    {
      "inputs": [
        {
          "internalType": "address",
          "name": "account",
          "type": "address"
        }
      ],
      "name": "votingPower",
      "outputs": [
        {
          "internalType": "uint256",
          "name": "",
          "type": "uint256"
        }
      ],
      "stateMutability": "view",
      "type": "function"
    },
    {
      "inputs": [
        {
          "internalType": "address",
          "name": "",
          "type": "address"
        }
      ],
      "name": "votingPowerSpent",
      "outputs": [
        {
          "internalType": "uint256",
          "name": "",
          "type": "uint256"
        }
      ],
      "stateMutability": "view",
      "type": "function"
    },
    {
      "inputs": [],
      "name": "winnerName",
      "outputs": [
        {
          "internalType": "bytes32",
          "name": "winnerName_",
          "type": "bytes32"
        }
      ],
      "stateMutability": "view",
      "type": "function"
    },
    {
      "inputs": [],
      "name": "winningProposal",
      "outputs": [
        {
          "internalType": "uint256",
          "name": "winningProposal_",
          "type": "uint256"
        }
      ],
      "stateMutability": "view",
      "type": "function"
    }
  ],
  "bytecode": "0x60806040523480156200001157600080fd5b506040516200108f3803806200108f8339818101604052810190620000379190620003a4565b816000806101000a81548173ffffffffffffffffffffffffffffffffffffffff021916908373ffffffffffffffffffffffffffffffffffffffff16021790555080436200008591906200044e565b60028190555060005b8351811015620001225760016040518060400160405280868481518110620000bb57620000ba62000489565b5b60200260200101518152602001600081525090806001815401808255809150506001900390600052602060002090600202016000909190919091506000820151816000015560208201518160010155505080806200011990620004b8565b9150506200008e565b5050505062000505565b6000604051905090565b600080fd5b600080fd5b600080fd5b6000601f19601f8301169050919050565b7f4e487b7100000000000000000000000000000000000000000000000000000000600052604160045260246000fd5b620001908262000145565b810181811067ffffffffffffffff82111715620001b257620001b162000156565b5b80604052505050565b6000620001c76200012c565b9050620001d5828262000185565b919050565b600067ffffffffffffffff821115620001f857620001f762000156565b5b602082029050602081019050919050565b600080fd5b6000819050919050565b62000223816200020e565b81146200022f57600080fd5b50565b600081519050620002438162000218565b92915050565b6000620002606200025a84620001da565b620001bb565b9050808382526020820190506020840283018581111562000286576200028562000209565b5b835b81811015620002b357806200029e888262000232565b84526020840193505060208101905062000288565b5050509392505050565b600082601f830112620002d557620002d462000140565b5b8151620002e784826020860162000249565b91505092915050565b600073ffffffffffffffffffffffffffffffffffffffff82169050919050565b60006200031d82620002f0565b9050919050565b6000620003318262000310565b9050919050565b620003438162000324565b81146200034f57600080fd5b50565b600081519050620003638162000338565b92915050565b6000819050919050565b6200037e8162000369565b81146200038a57600080fd5b50565b6000815190506200039e8162000373565b92915050565b600080600060608486031215620003c057620003bf62000136565b5b600084015167ffffffffffffffff811115620003e157620003e06200013b565b5b620003ef86828701620002bd565b9350506020620004028682870162000352565b925050604062000415868287016200038d565b9150509250925092565b7f4e487b7100000000000000000000000000000000000000000000000000000000600052601160045260246000fd5b60006200045b8262000369565b9150620004688362000369565b92508282019050808211156200048357620004826200041f565b5b92915050565b7f4e487b7100000000000000000000000000000000000000000000000000000000600052603260045260246000fd5b6000620004c58262000369565b91507fffffffffffffffffffffffffffffffffffffffffffffffffffffffffffffffff8203620004fa57620004f96200041f565b5b600182019050919050565b610b7a80620005156000396000f3fe608060405234801561001057600080fd5b50600436106100935760003560e01c8063a720035111610066578063a720035114610123578063b24b274814610153578063b384abef14610171578063c07473f61461018d578063e2ba53f0146101bd57610093565b8063013cf08b146100985780632a8cd29e146100c957806355a373d6146100e7578063609ff1bd14610105575b600080fd5b6100b260048036038101906100ad9190610611565b6101db565b6040516100c0929190610666565b60405180910390f35b6100d161020f565b6040516100de919061068f565b60405180910390f35b6100ef610215565b6040516100fc9190610729565b60405180910390f35b61010d610239565b60405161011a919061068f565b60405180910390f35b61013d60048036038101906101389190610782565b6102c1565b60405161014a919061068f565b60405180910390f35b61015b6102d9565b604051610168919061086d565b60405180910390f35b61018b6004803603810190610186919061088f565b61039d565b005b6101a760048036038101906101a29190610782565b61047e565b6040516101b4919061068f565b60405180910390f35b6101c5610589565b6040516101d291906108cf565b60405180910390f35b600181815481106101eb57600080fd5b90600052602060002090600202016000915090508060000154908060010154905082565b60025481565b60008054906101000a900473ffffffffffffffffffffffffffffffffffffffff1681565b6000806000905060005b6001805490508110156102bc578160018281548110610265576102646108ea565b5b90600052602060002090600202016001015411156102a95760018181548110610291576102906108ea565b5b90600052602060002090600202016001015491508092505b80806102b490610948565b915050610243565b505090565b60036020528060005260406000206000915090505481565b6060600060018054905067ffffffffffffffff8111156102fc576102fb610990565b5b60405190808252806020026020018201604052801561032a5781602001602082028036833780820191505090505b50905060005b6001805490508110156103955760018181548110610351576103506108ea565b5b906000526020600020906002020160000154828281518110610376576103756108ea565b5b602002602001018181525050808061038d90610948565b915050610330565b508091505090565b806103a73361047e565b10156103e8576040517f08c379a00000000000000000000000000000000000000000000000000000000081526004016103df90610a42565b60405180910390fd5b80600360003373ffffffffffffffffffffffffffffffffffffffff1673ffffffffffffffffffffffffffffffffffffffff16815260200190815260200160002060008282546104379190610a62565b925050819055508060018381548110610453576104526108ea565b5b906000526020600020906002020160010160008282546104739190610a62565b925050819055505050565b6000806104996002546001436104949190610a96565b6105bd565b9050600360008473ffffffffffffffffffffffffffffffffffffffff1673ffffffffffffffffffffffffffffffffffffffff1681526020019081526020016000205460008054906101000a900473ffffffffffffffffffffffffffffffffffffffff1673ffffffffffffffffffffffffffffffffffffffff16633a46b1a885846040518363ffffffff1660e01b8152600401610536929190610ad9565b602060405180830381865afa158015610553573d6000803e3d6000fd5b505050506040513d601f19601f820116820180604052508101906105779190610b17565b6105819190610a96565b915050919050565b60006001610595610239565b815481106105a6576105a56108ea565b5b906000526020600020906002020160000154905090565b60008183106105cc57816105ce565b825b905092915050565b600080fd5b6000819050919050565b6105ee816105db565b81146105f957600080fd5b50565b60008135905061060b816105e5565b92915050565b600060208284031215610627576106266105d6565b5b6000610635848285016105fc565b91505092915050565b6000819050919050565b6106518161063e565b82525050565b610660816105db565b82525050565b600060408201905061067b6000830185610648565b6106886020830184610657565b9392505050565b60006020820190506106a46000830184610657565b92915050565b600073ffffffffffffffffffffffffffffffffffffffff82169050919050565b6000819050919050565b60006106ef6106ea6106e5846106aa565b6106ca565b6106aa565b9050919050565b6000610701826106d4565b9050919050565b6000610713826106f6565b9050919050565b61072381610708565b82525050565b600060208201905061073e600083018461071a565b92915050565b600061074f826106aa565b9050919050565b61075f81610744565b811461076a57600080fd5b50565b60008135905061077c81610756565b92915050565b600060208284031215610798576107976105d6565b5b60006107a68482850161076d565b91505092915050565b600081519050919050565b600082825260208201905092915050565b6000819050602082019050919050565b6107e48161063e565b82525050565b60006107f683836107db565b60208301905092915050565b6000602082019050919050565b600061081a826107af565b61082481856107ba565b935061082f836107cb565b8060005b8381101561086057815161084788826107ea565b975061085283610802565b925050600181019050610833565b5085935050505092915050565b60006020820190508181036000830152610887818461080f565b905092915050565b600080604083850312156108a6576108a56105d6565b5b60006108b4858286016105fc565b92505060206108c5858286016105fc565b9150509250929050565b60006020820190506108e46000830184610648565b92915050565b7f4e487b7100000000000000000000000000000000000000000000000000000000600052603260045260246000fd5b7f4e487b7100000000000000000000000000000000000000000000000000000000600052601160045260246000fd5b6000610953826105db565b91507fffffffffffffffffffffffffffffffffffffffffffffffffffffffffffffffff820361098557610984610919565b5b600182019050919050565b7f4e487b7100000000000000000000000000000000000000000000000000000000600052604160045260246000fd5b600082825260208201905092915050565b7f546f6b656e697a656442616c6c6f743a20747279696e6720746f20766f74652060008201527f6d6f7265207468616e20616c6c6f776564000000000000000000000000000000602082015250565b6000610a2c6031836109bf565b9150610a37826109d0565b604082019050919050565b60006020820190508181036000830152610a5b81610a1f565b9050919050565b6000610a6d826105db565b9150610a78836105db565b9250828201905080821115610a9057610a8f610919565b5b92915050565b6000610aa1826105db565b9150610aac836105db565b9250828203905081811115610ac457610ac3610919565b5b92915050565b610ad381610744565b82525050565b6000604082019050610aee6000830185610aca565b610afb6020830184610657565b9392505050565b600081519050610b11816105e5565b92915050565b600060208284031215610b2d57610b2c6105d6565b5b6000610b3b84828501610b02565b9150509291505056fea264697066735822122036f5cab65cd2295543e70e2824e45ad32004aec660a3ef2791fa1d8db0e24b1564736f6c63430008120033",
  "linkReferences": {},
  "deployedLinkReferences": {}
}